:100000000C942A000C943F000C943F000C943F0089
:100010000C943F000C943F000C943F000C943F0064
:100020000C943F000C943F000C943F000C943F0054
:100030000C943F000C943F000C943F000C943F0044
:100040000C943F000C943F000C943F000C943F0034
:100050000C943F0011241FBECFE5D4E0DEBFCDBF1E
:1000600010E0A0E6B0E0E0EEF2E002C005900D92F4
:10007000AA3FB107D9F70E949E000C946E010C9420
:100080000000982F907F946098BBE7EAF1E63197E3
:10009000F1F700C00000C2988295807F846088BB21
:1000A00087EA91E60197F1F700C00000C298089531
:1000B000982F907F956098BBE7EAF1E63197F1F7CA
:1000C00000C00000C2988295807F856088BB87EA67
:1000D00091E60197F1F700C00000C2980895CF9310
:1000E000DF93EC018881882331F021960E9458002B
:1000F00089918111FBCFDF91CF91089582E00E9419
:10010000410088E20E9441008EE00E94410086E0AA
:100110000E94410081E00E94410080E80E9441006D
:1001200008958FE789B982EB80BD8EE280BD88E1BA
:100130008AB908955F9BFECF8CB108958FEF87BB7E
:100140000E947E0080E690E00E946F002FE38DE029
:1001500093E0215080409040E1F700C0000081E032
:100160000E94410080E80E94410089E690E00E94E0
:100170006F0080EC0E94410084E790E00E946F00D5
:100180002FE38DE093E0215080409040E1F700C0E4
:1001900000000E9491000E949A00813389F481E05E
:1001A0000E94410081E890E00E946F002FE38DE003
:1001B00093E0215080409040E1F700C0000084C0EF
:1001C000823389F481E00E9441008EE890E00E9431
:1001D0006F002FE38DE093E0215080409040E1F7E5
:1001E00000C0000071C0833389F481E00E944100A7
:1001F0008EE990E00E946F002FE38DE093E02150A4
:1002000080409040E1F700C000005EC0843389F474
:1002100081E00E9441008FEA90E00E946F002FE38E
:100220008DE093E0215080409040E1F700C0000055
:100230004BC0853389F481E00E9441008DEB90E052
:100240000E946F002FE38DE093E0215080409040AA
:10025000E1F700C0000038C0863389F481E00E94D5
:1002600041008BEC90E00E946F002FE38DE093E063
:10027000215080409040E1F700C0000025C08A3244
:1002800089F481E00E94410089ED90E00E946F00B6
:100290002FE38DE093E0215080409040E1F700C0D3
:1002A000000012C0833281F481E00E94410089EE97
:1002B00090E00E946F002FE38DE093E0215080409A
:1002C0009040E1F700C000002FE986E891E021505E
:1002D00080409040E1F700C000005DCFF894FFCF70
:1002E00048656C6C6F2121210057656C636F6D65EB
:1002F00020746F00562D52657374617572616E744F
:1003000000312E546561202052732E313000322E80
:10031000436F66666565202052732E313500332E9B
:1003200056616461706176202052732E3230003441
:100330002E49646C69202052732E323500352E44CC
:100340006F7361202052732E323500362C4C756E3F
:100350006368202052733630004F726465722063E8
:10036000616E63656C6C6564004F726465722043F6
:0A0370006F6E6669726D656400002F
:00000001FF
