:100000000C9436000C944B000C944B000C944B0059
:100010000C944B000C944B000C944B000C944B0034
:100020000C944B000C944B000C944B000C944B0024
:100030000C944B000C944B000C944B000C944B0014
:100040000C944B000C944B000C944B000C944B0004
:100050000C944B00010206021D0234024B026202A4
:100060007902C602C602C6029002A70211241FBE70
:10007000CFE5D4E0DEBFCDBF11E0A0E6B0E0E0EB1D
:10008000F5E002C005900D92A033B107D9F70E94A8
:1000900004010C94D6020C940000982F907F946079
:1000A00098BBE7EAF1E63197F1F700C00000C2988B
:1000B0008295807F846088BB87EA91E60197F1F79B
:1000C00000C00000C298089582E090E00E944D00B8
:1000D00088E290E00E944D008EE090E00E944D008A
:1000E00086E090E00E944D0081E090E00E944D008B
:1000F00080E890E00E944D000895982F907F9560D1
:1001000098BBE7EAF1E63197F1F700C00000C2982A
:100110008295807F856088BB87EA91E60197F1F739
:1001200000C00000C2980895CF93DF93EC0188814E
:10013000882331F021960E947D0089918111FBCFA7
:10014000DF91CF9108958EEF85BB00C083B3807F90
:10015000803E41F0803D41F0803B41F0803741F4EA
:100160008CE007C081E005C082E003C083E001C0ED
:100170008FEF9DEF95BB00C093B3907F903E41F011
:10018000903D41F0903B41F0903739F48DE005C04F
:1001900084E003C085E001C086E09BEF95BB00C012
:1001A00093B3907F903E41F0903D41F0903B41F001
:1001B000903739F48EE005C087E003C088E001C0C5
:1001C00089E097EF95BB00C093B3907F903E41F0DC
:1001D000903D41F0903B41F0903739F48FE0089525
:1001E0008AE0089580E008958BE0089510BC8FE7C1
:1001F00089B98AB188618AB980B58E6280BD089557
:100200005D9BFECF8CB908958FE084BB8FEF85BBDB
:1002100087BB0E9464000E94F60081E00E944D00AE
:1002200080E80E944D0080E690E00E9494002FE359
:100230008DE093E0215080409040E1F700C0000045
:1002400080EC0E944D008BE690E00E9494002FE32A
:100250008DE093E0215080409040E1F700C0000025
:1002600081E00E944D0080E80E944D0088E790E008
:100270000E9494002FE38DE093E021508040904055
:10028000E1F700C0000080EC0E944D0085E890E09E
:100290000E9494002FE38DE093E021508040904035
:1002A000E1F700C0000081E00E944D0080E80E945C
:1002B0004D0082E990E00E9494002FE38DE093E0EE
:1002C000215080409040E1F700C0000080EC0E9487
:1002D0004D008FE990E00E9494002FE38DE093E0C1
:1002E000215080409040E1F700C0000081E00E9472
:1002F0004D0080E80E944D008BEA90E00E9494003F
:100300002FE38DE093E0215080409040E1F700C062
:10031000000080EC0E944D0088EB90E00E94940069
:100320002FE38DE093E0215080409040E1F700C042
:10033000000081E00E944D0080E80E944D0088ECA2
:1003400090E00E9494002FE38DE093E021508040E4
:100350009040E1F700C0000080EC0E944D0089ED64
:1003600090E00E9494002FE38DE093E021508040C4
:100370009040E1F700C0000081E00E944D0080E85D
:100380000E944D0087EE90E00E9494002FE38DE0E4
:1003900093E0215080409040E1F700C0000080ECE5
:1003A0000E944D0085EF90E00E9494002FE38DE0C5
:1003B00093E0215080409040E1F700C0000081E0D0
:1003C0000E944D0080E80E944D0084E091E00E9470
:1003D00094002FE38DE093E0215080409040E1F7BE
:1003E00000C000000E94A3008F3F09F4CFC090E03E
:1003F0008C30910508F0CAC0FC01E65DFF4F0C94FB
:10040000D00280E390E00E949400C0C081E00E948E
:100410004D0080E80E944D008BEA90E00E9494001D
:100420002FE38DE093E0215080409040E1F700C041
:10043000000081E30E940001A9C081E00E944D00FC
:1004400080E80E944D0088EB90E00E9494002FE32A
:100450008DE093E0215080409040E1F700C0000023
:1004600082E30E94000192C081E00E944D0080E87A
:100470000E944D0088EC90E00E9494002FE38DE0F4
:1004800093E0215080409040E1F700C0000083E3FA
:100490000E9400017BC081E00E944D0080E80E9424
:1004A0004D0089ED90E00E9494002FE38DE093E0F1
:1004B000215080409040E1F700C0000084E30E949A
:1004C000000164C081E00E944D0080E80E944D0060
:1004D00087EE90E00E9494002FE38DE093E021509E
:1004E00080409040E1F700C0000085E30E940001D9
:1004F0004DC081E00E944D0080E80E944D0085EFD4
:1005000090E00E9494002FE38DE093E02150804022
:100510009040E1F700C0000086E30E94000136C071
:1005200081E00E944D0080E80E944D0080E191E052
:100530000E9494002FE38DE093E021508040904092
:10054000E1F700C000008AE20E9400011FC081E0C4
:100550000E944D0080E80E944D0080E291E00E94E0
:1005600094002FE38DE093E0215080409040E1F72C
:1005700000C0000083E20E9400012FE38DE093E0C1
:10058000215080409040E1F700C000002FE986E84C
:1005900091E0215080409040E1F700C0000022CF60
:1005A000EE0FFF1F0590F491E02D0994F894FFCF12
:1005B00057656C636F6D6520746F00562D526573BF
:1005C00074617572616E74005072657373204B654F
:1005D0007920746F0053656C656374204F72646595
:1005E00072002320746F20636F6E6669726D002A3B
:1005F00020746F2063616E63656C00312E546561F9
:10060000202052732E313000322E436F66666565AE
:10061000202052732E313500332E56616461706193
:1006200076202052732E323000342E49646C6920BB
:100630002052732E323500352E446F7361202052C4
:10064000732E323500362E4C756E6368202052733F
:100650002E36300050726573732061204B6579002F
:100660004F726465722043616E63656C6C656400F3
:100670004F7264657220436F6E6669726D656400C7
:00000001FF
